{
  "abi": [
    {
      "inputs": [
        {
          "internalType": "address",
          "name": "vrfCoordinatorV2",
          "type": "address"
        },
        {
          "internalType": "uint64",
          "name": "subscriptionId",
          "type": "uint64"
        },
        {
          "internalType": "bytes32",
          "name": "gasLane",
          "type": "bytes32"
        },
        {
          "internalType": "uint32",
          "name": "callbackGasLimit",
          "type": "uint32"
        },
        {
          "internalType": "string[3]",
          "name": "artUris",
          "type": "string[3]"
        },
        {
          "internalType": "uint256",
          "name": "mintCost",
          "type": "uint256"
        }
      ],
      "stateMutability": "nonpayable",
      "type": "constructor"
    },
    {
      "inputs": [],
      "name": "IPFSNft__LowETHSent",
      "type": "error"
    },
    {
      "inputs": [],
      "name": "IPFSNft__RangeOutOFBounds",
      "type": "error"
    },
    {
      "inputs": [],
      "name": "IPFSNft__TransferFailed",
      "type": "error"
    },
    {
      "inputs": [
        {
          "internalType": "address",
          "name": "have",
          "type": "address"
        },
        {
          "internalType": "address",
          "name": "want",
          "type": "address"
        }
      ],
      "name": "OnlyCoordinatorCanFulfill",
      "type": "error"
    },
    {
      "anonymous": false,
      "inputs": [
        {
          "indexed": true,
          "internalType": "address",
          "name": "owner",
          "type": "address"
        },
        {
          "indexed": true,
          "internalType": "address",
          "name": "approved",
          "type": "address"
        },
        {
          "indexed": true,
          "internalType": "uint256",
          "name": "tokenId",
          "type": "uint256"
        }
      ],
      "name": "Approval",
      "type": "event"
    },
    {
      "anonymous": false,
      "inputs": [
        {
          "indexed": true,
          "internalType": "address",
          "name": "owner",
          "type": "address"
        },
        {
          "indexed": true,
          "internalType": "address",
          "name": "operator",
          "type": "address"
        },
        {
          "indexed": false,
          "internalType": "bool",
          "name": "approved",
          "type": "bool"
        }
      ],
      "name": "ApprovalForAll",
      "type": "event"
    },
    {
      "anonymous": false,
      "inputs": [
        {
          "indexed": true,
          "internalType": "address",
          "name": "previousOwner",
          "type": "address"
        },
        {
          "indexed": true,
          "internalType": "address",
          "name": "newOwner",
          "type": "address"
        }
      ],
      "name": "OwnershipTransferred",
      "type": "event"
    },
    {
      "anonymous": false,
      "inputs": [
        {
          "indexed": true,
          "internalType": "address",
          "name": "from",
          "type": "address"
        },
        {
          "indexed": true,
          "internalType": "address",
          "name": "to",
          "type": "address"
        },
        {
          "indexed": true,
          "internalType": "uint256",
          "name": "tokenId",
          "type": "uint256"
        }
      ],
      "name": "Transfer",
      "type": "event"
    },
    {
      "anonymous": false,
      "inputs": [
        {
          "indexed": false,
          "internalType": "enum IPFSNft.ArtVal",
          "name": "artVal",
          "type": "uint8"
        },
        {
          "indexed": false,
          "internalType": "address",
          "name": "minter",
          "type": "address"
        }
      ],
      "name": "mintedNFT",
      "type": "event"
    },
    {
      "anonymous": false,
      "inputs": [
        {
          "indexed": true,
          "internalType": "uint256",
          "name": "requestId",
          "type": "uint256"
        },
        {
          "indexed": false,
          "internalType": "address",
          "name": "requester",
          "type": "address"
        }
      ],
      "name": "requestedNFT",
      "type": "event"
    },
    {
      "inputs": [
        {
          "internalType": "address",
          "name": "to",
          "type": "address"
        },
        {
          "internalType": "uint256",
          "name": "tokenId",
          "type": "uint256"
        }
      ],
      "name": "approve",
      "outputs": [],
      "stateMutability": "nonpayable",
      "type": "function"
    },
    {
      "inputs": [
        {
          "internalType": "uint256",
          "name": "index",
          "type": "uint256"
        }
      ],
      "name": "artURIsGetter",
      "outputs": [
        {
          "internalType": "string",
          "name": "",
          "type": "string"
        }
      ],
      "stateMutability": "view",
      "type": "function"
    },
    {
      "inputs": [
        {
          "internalType": "address",
          "name": "owner",
          "type": "address"
        }
      ],
      "name": "balanceOf",
      "outputs": [
        {
          "internalType": "uint256",
          "name": "",
          "type": "uint256"
        }
      ],
      "stateMutability": "view",
      "type": "function"
    },
    {
      "inputs": [
        {
          "internalType": "uint256",
          "name": "tokenId",
          "type": "uint256"
        }
      ],
      "name": "getApproved",
      "outputs": [
        {
          "internalType": "address",
          "name": "",
          "type": "address"
        }
      ],
      "stateMutability": "view",
      "type": "function"
    },
    {
      "inputs": [
        {
          "internalType": "uint256",
          "name": "rangeValue",
          "type": "uint256"
        }
      ],
      "name": "getArtValuedName",
      "outputs": [
        {
          "internalType": "enum IPFSNft.ArtVal",
          "name": "",
          "type": "uint8"
        }
      ],
      "stateMutability": "pure",
      "type": "function"
    },
    {
      "inputs": [
        {
          "internalType": "address",
          "name": "owner",
          "type": "address"
        },
        {
          "internalType": "address",
          "name": "operator",
          "type": "address"
        }
      ],
      "name": "isApprovedForAll",
      "outputs": [
        {
          "internalType": "bool",
          "name": "",
          "type": "bool"
        }
      ],
      "stateMutability": "view",
      "type": "function"
    },
    {
      "inputs": [],
      "name": "mintFreeGetter",
      "outputs": [
        {
          "internalType": "uint256",
          "name": "",
          "type": "uint256"
        }
      ],
      "stateMutability": "view",
      "type": "function"
    },
    {
      "inputs": [],
      "name": "name",
      "outputs": [
        {
          "internalType": "string",
          "name": "",
          "type": "string"
        }
      ],
      "stateMutability": "view",
      "type": "function"
    },
    {
      "inputs": [],
      "name": "owner",
      "outputs": [
        {
          "internalType": "address",
          "name": "",
          "type": "address"
        }
      ],
      "stateMutability": "view",
      "type": "function"
    },
    {
      "inputs": [
        {
          "internalType": "uint256",
          "name": "tokenId",
          "type": "uint256"
        }
      ],
      "name": "ownerOf",
      "outputs": [
        {
          "internalType": "address",
          "name": "",
          "type": "address"
        }
      ],
      "stateMutability": "view",
      "type": "function"
    },
    {
      "inputs": [],
      "name": "rangesArrayGetter",
      "outputs": [
        {
          "internalType": "uint256[3]",
          "name": "",
          "type": "uint256[3]"
        }
      ],
      "stateMutability": "pure",
      "type": "function"
    },
    {
      "inputs": [
        {
          "internalType": "uint256",
          "name": "requestId",
          "type": "uint256"
        },
        {
          "internalType": "uint256[]",
          "name": "randomWords",
          "type": "uint256[]"
        }
      ],
      "name": "rawFulfillRandomWords",
      "outputs": [],
      "stateMutability": "nonpayable",
      "type": "function"
    },
    {
      "inputs": [],
      "name": "renounceOwnership",
      "outputs": [],
      "stateMutability": "nonpayable",
      "type": "function"
    },
    {
      "inputs": [],
      "name": "requestNft",
      "outputs": [
        {
          "internalType": "uint256",
          "name": "requestID",
          "type": "uint256"
        }
      ],
      "stateMutability": "payable",
      "type": "function"
    },
    {
      "inputs": [
        {
          "internalType": "address",
          "name": "from",
          "type": "address"
        },
        {
          "internalType": "address",
          "name": "to",
          "type": "address"
        },
        {
          "internalType": "uint256",
          "name": "tokenId",
          "type": "uint256"
        }
      ],
      "name": "safeTransferFrom",
      "outputs": [],
      "stateMutability": "nonpayable",
      "type": "function"
    },
    {
      "inputs": [
        {
          "internalType": "address",
          "name": "from",
          "type": "address"
        },
        {
          "internalType": "address",
          "name": "to",
          "type": "address"
        },
        {
          "internalType": "uint256",
          "name": "tokenId",
          "type": "uint256"
        },
        {
          "internalType": "bytes",
          "name": "data",
          "type": "bytes"
        }
      ],
      "name": "safeTransferFrom",
      "outputs": [],
      "stateMutability": "nonpayable",
      "type": "function"
    },
    {
      "inputs": [
        {
          "internalType": "address",
          "name": "operator",
          "type": "address"
        },
        {
          "internalType": "bool",
          "name": "approved",
          "type": "bool"
        }
      ],
      "name": "setApprovalForAll",
      "outputs": [],
      "stateMutability": "nonpayable",
      "type": "function"
    },
    {
      "inputs": [
        {
          "internalType": "bytes4",
          "name": "interfaceId",
          "type": "bytes4"
        }
      ],
      "name": "supportsInterface",
      "outputs": [
        {
          "internalType": "bool",
          "name": "",
          "type": "bool"
        }
      ],
      "stateMutability": "view",
      "type": "function"
    },
    {
      "inputs": [],
      "name": "symbol",
      "outputs": [
        {
          "internalType": "string",
          "name": "",
          "type": "string"
        }
      ],
      "stateMutability": "view",
      "type": "function"
    },
    {
      "inputs": [],
      "name": "tokenCounterGetter",
      "outputs": [
        {
          "internalType": "uint256",
          "name": "",
          "type": "uint256"
        }
      ],
      "stateMutability": "view",
      "type": "function"
    },
    {
      "inputs": [
        {
          "internalType": "uint256",
          "name": "tokenId",
          "type": "uint256"
        }
      ],
      "name": "tokenURI",
      "outputs": [
        {
          "internalType": "string",
          "name": "",
          "type": "string"
        }
      ],
      "stateMutability": "view",
      "type": "function"
    },
    {
      "inputs": [
        {
          "internalType": "address",
          "name": "from",
          "type": "address"
        },
        {
          "internalType": "address",
          "name": "to",
          "type": "address"
        },
        {
          "internalType": "uint256",
          "name": "tokenId",
          "type": "uint256"
        }
      ],
      "name": "transferFrom",
      "outputs": [],
      "stateMutability": "nonpayable",
      "type": "function"
    },
    {
      "inputs": [
        {
          "internalType": "address",
          "name": "newOwner",
          "type": "address"
        }
      ],
      "name": "transferOwnership",
      "outputs": [],
      "stateMutability": "nonpayable",
      "type": "function"
    },
    {
      "inputs": [],
      "name": "withdraw",
      "outputs": [],
      "stateMutability": "nonpayable",
      "type": "function"
    }
  ],
  "bytecode": {
    "object": "0x6101206040523480156200001257600080fd5b50604051620025cf380380620025cf833981016040819052620000359162000386565b856040518060400160405280600881526020016712541194c813919560c21b8152506040518060400160405280600281526020016124a760f11b8152508160009081620000839190620004c1565b506001620000928282620004c1565b5050506001600160a01b0316608052620000ac33620000f5565b6001600160a01b03861660a0526001600160401b03851660c05260e084905263ffffffff831661010052620000e5600983600362000147565b50600a55506200058d9350505050565b600780546001600160a01b038381166001600160a01b0319831681179093556040519116919082907f8be0079c531659141344cd1fd0a4f28419497f9722a3daafe3b4186f6b6457e090600090a35050565b82805482825590600052602060002090810192821562000192579160200282015b82811115620001925782518290620001819082620004c1565b509160200191906001019062000168565b50620001a0929150620001a4565b5090565b80821115620001a0576000620001bb8282620001c5565b50600101620001a4565b508054620001d39062000432565b6000825580601f10620001e4575050565b601f01602090049060005260206000209081019062000204919062000207565b50565b5b80821115620001a0576000815560010162000208565b634e487b7160e01b600052604160045260246000fd5b604051606081016001600160401b03811182821017156200025957620002596200021e565b60405290565b604051601f8201601f191681016001600160401b03811182821017156200028a576200028a6200021e565b604052919050565b6000601f8381840112620002a557600080fd5b620002af62000234565b806060850186811115620002c257600080fd5b855b818110156200037a5780516001600160401b0380821115620002e65760008081fd5b81890191508987830112620002fb5760008081fd5b8151818111156200031057620003106200021e565b6020915062000327818901601f191683016200025f565b8181528b838386010111156200033d5760008081fd5b60005b828110156200035d57848101840151828201850152830162000340565b5060009181018301919091528652949094019350602001620002c4565b50909695505050505050565b60008060008060008060c08789031215620003a057600080fd5b86516001600160a01b0381168114620003b857600080fd5b60208801519096506001600160401b038082168214620003d757600080fd5b604089015160608a0151929750955063ffffffff82168214620003f957600080fd5b6080890151919450808211156200040f57600080fd5b506200041e89828a0162000292565b92505060a087015190509295509295509295565b600181811c908216806200044757607f821691505b6020821081036200046857634e487b7160e01b600052602260045260246000fd5b50919050565b601f821115620004bc57600081815260208120601f850160051c81016020861015620004975750805b601f850160051c820191505b81811015620004b857828155600101620004a3565b5050505b505050565b81516001600160401b03811115620004dd57620004dd6200021e565b620004f581620004ee845462000432565b846200046e565b602080601f8311600181146200052d5760008415620005145750858301515b600019600386901b1c1916600185901b178555620004b8565b600085815260208120601f198616915b828110156200055e578886015182559484019460019091019084016200053d565b50858210156200057d5787850151600019600388901b60f8161c191681555b5050505050600190811b01905550565b60805160a05160c05160e05161010051611ff6620005d96000396000610a0e015260006109ac015260006109db01526000610a3c015260008181610728015261076a0152611ff66000f3fe60806040526004361061014b5760003560e01c8063715018a6116100b6578063bbb110141161006f578063bbb1101414610385578063c87b56dd146103b2578063d6734496146103d2578063e985e9c5146103f4578063eb49ddc714610414578063f2fde38b1461042957600080fd5b8063715018a6146102f55780638da5cb5b1461030a57806395d89b4114610328578063a22cb4651461033d578063aa1524911461035d578063b88d4fde1461036557600080fd5b80631fe543e3116101085780631fe543e31461024057806323b872dd146102605780633ccfd60b1461028057806342842e0e146102955780636352211e146102b557806370a08231146102d557600080fd5b806301ffc9a71461015057806306fdde0314610185578063081812fc146101a7578063095ea7b3146101df57806315039ef31461020157806317b3757014610220575b600080fd5b34801561015c57600080fd5b5061017061016b366004611892565b610449565b60405190151581526020015b60405180910390f35b34801561019157600080fd5b5061019a61049b565b60405161017c91906118ff565b3480156101b357600080fd5b506101c76101c2366004611912565b61052d565b6040516001600160a01b03909116815260200161017c565b3480156101eb57600080fd5b506101ff6101fa366004611947565b610554565b005b34801561020d57600080fd5b50600b545b60405190815260200161017c565b34801561022c57600080fd5b5061019a61023b366004611912565b61066e565b34801561024c57600080fd5b506101ff61025b3660046119b8565b61071d565b34801561026c57600080fd5b506101ff61027b366004611a6a565b6107a5565b34801561028c57600080fd5b506101ff6107d6565b3480156102a157600080fd5b506101ff6102b0366004611a6a565b610849565b3480156102c157600080fd5b506101c76102d0366004611912565b610864565b3480156102e157600080fd5b506102126102f0366004611aa6565b6108c4565b34801561030157600080fd5b506101ff61094a565b34801561031657600080fd5b506007546001600160a01b03166101c7565b34801561033457600080fd5b5061019a61095e565b34801561034957600080fd5b506101ff610358366004611ac1565b61096d565b610212610978565b34801561037157600080fd5b506101ff610380366004611afd565b610b0e565b34801561039157600080fd5b506103a56103a0366004611912565b610b46565b60405161017c9190611bf5565b3480156103be57600080fd5b5061019a6103cd366004611912565b610bfe565b3480156103de57600080fd5b506103e7610d0e565b60405161017c9190611c03565b34801561040057600080fd5b5061017061040f366004611c34565b610d39565b34801561042057600080fd5b50600a54610212565b34801561043557600080fd5b506101ff610444366004611aa6565b610d67565b60006001600160e01b031982166380ac58cd60e01b148061047a57506001600160e01b03198216635b5e139f60e01b145b8061049557506301ffc9a760e01b6001600160e01b03198316145b92915050565b6060600080546104aa90611c67565b80601f01602080910402602001604051908101604052809291908181526020018280546104d690611c67565b80156105235780601f106104f857610100808354040283529160200191610523565b820191906000526020600020905b81548152906001019060200180831161050657829003601f168201915b5050505050905090565b600061053882610de0565b506000908152600460205260409020546001600160a01b031690565b600061055f82610864565b9050806001600160a01b0316836001600160a01b0316036105d15760405162461bcd60e51b815260206004820152602160248201527f4552433732313a20617070726f76616c20746f2063757272656e74206f776e656044820152603960f91b60648201526084015b60405180910390fd5b336001600160a01b03821614806105ed57506105ed8133610d39565b61065f5760405162461bcd60e51b815260206004820152603e60248201527f4552433732313a20617070726f76652063616c6c6572206973206e6f7420746f60448201527f6b656e206f776e6572206e6f7220617070726f76656420666f7220616c6c000060648201526084016105c8565b6106698383610e3f565b505050565b60606009828154811061068357610683611ca1565b90600052602060002001805461069890611c67565b80601f01602080910402602001604051908101604052809291908181526020018280546106c490611c67565b80156107115780601f106106e657610100808354040283529160200191610711565b820191906000526020600020905b8154815290600101906020018083116106f457829003601f168201915b50505050509050919050565b336001600160a01b037f000000000000000000000000000000000000000000000000000000000000000016146107975760405163073e64fd60e21b81523360048201526001600160a01b037f00000000000000000000000000000000000000000000000000000000000000001660248201526044016105c8565b6107a18282610ead565b5050565b6107af338261101f565b6107cb5760405162461bcd60e51b81526004016105c890611cb7565b61066983838361107d565b6107de611219565b6040514790600090339083908381818185875af1925050503d8060008114610822576040519150601f19603f3d011682016040523d82523d6000602084013e610827565b606091505b50509050806107a157604051635a125b3560e01b815260040160405180910390fd5b61066983838360405180602001604052806000815250610b0e565b6000818152600260205260408120546001600160a01b0316806104955760405162461bcd60e51b8152602060048201526018602482015277115490cdcc8c4e881a5b9d985b1a59081d1bdad95b88125160421b60448201526064016105c8565b60006001600160a01b03821661092e5760405162461bcd60e51b815260206004820152602960248201527f4552433732313a2061646472657373207a65726f206973206e6f7420612076616044820152683634b21037bbb732b960b91b60648201526084016105c8565b506001600160a01b031660009081526003602052604090205490565b610952611219565b61095c6000611273565b565b6060600180546104aa90611c67565b6107a13383836112c5565b6000600a5434101561099d57604051635d86ad2360e01b815260040160405180910390fd5b6040516305d3b1d360e41b81527f0000000000000000000000000000000000000000000000000000000000000000600482015267ffffffffffffffff7f00000000000000000000000000000000000000000000000000000000000000001660248201526003604482015263ffffffff7f0000000000000000000000000000000000000000000000000000000000000000166064820152600160848201527f00000000000000000000000000000000000000000000000000000000000000006001600160a01b031690635d3b1d309060a4016020604051808303816000875af1158015610a8d573d6000803e3d6000fd5b505050506040513d601f19601f82011682018060405250810190610ab19190611d05565b60008181526008602090815260409182902080546001600160a01b03191633908117909155915191825291925082917f70d8fc9a871d810c315f28086a7f7faafe6feb60e652f38f62d1991b5cbc8afc910160405180910390a290565b610b18338361101f565b610b345760405162461bcd60e51b81526004016105c890611cb7565b610b4084848484611393565b50505050565b60008080610b52610d0e565b905060005b6003811015610be457828510158015610b8f5750818160038110610b7d57610b7d611ca1565b6020020151610b8c9084611d34565b85105b15610baf57806002811115610ba657610ba6611bbd565b95945050505050565b818160038110610bc157610bc1611ca1565b6020020151610bd09084611d34565b925080610bdc81611d47565b915050610b57565b50604051630fa8fac160e01b815260040160405180910390fd5b6060610c0982610de0565b60008281526006602052604081208054610c2290611c67565b80601f0160208091040260200160405190810160405280929190818152602001828054610c4e90611c67565b8015610c9b5780601f10610c7057610100808354040283529160200191610c9b565b820191906000526020600020905b815481529060010190602001808311610c7e57829003601f168201915b505050505090506000610cb960408051602081019091526000815290565b90508051600003610ccb575092915050565b815115610cfd578082604051602001610ce5929190611d60565b60405160208183030381529060405292505050919050565b610d06846113c6565b949350505050565b610d1661185e565b6040518060600160405280600a8152602001601e81526020016064815250905090565b6001600160a01b03918216600090815260056020908152604080832093909416825291909152205460ff1690565b610d6f611219565b6001600160a01b038116610dd45760405162461bcd60e51b815260206004820152602660248201527f4f776e61626c653a206e6577206f776e657220697320746865207a65726f206160448201526564647265737360d01b60648201526084016105c8565b610ddd81611273565b50565b6000818152600260205260409020546001600160a01b0316610ddd5760405162461bcd60e51b8152602060048201526018602482015277115490cdcc8c4e881a5b9d985b1a59081d1bdad95b88125160421b60448201526064016105c8565b600081815260046020526040902080546001600160a01b0319166001600160a01b0384169081179091558190610e7482610864565b6001600160a01b03167f8c5be1e5ebec7d5bd14f71427d1e84f3dd0314c0f7b2291e5b200ac8c7c3b92560405160405180910390a45050565b600082815260086020526040902054600b546001600160a01b0390911690610ed6816001611d34565b600b819055506000606484600081518110610ef357610ef3611ca1565b6020026020010151610f059190611da5565b90506000610f1282610b46565b9050610f1e848461143a565b610fde836009836002811115610f3657610f36611bbd565b81548110610f4657610f46611ca1565b906000526020600020018054610f5b90611c67565b80601f0160208091040260200160405190810160405280929190818152602001828054610f8790611c67565b8015610fd45780601f10610fa957610100808354040283529160200191610fd4565b820191906000526020600020905b815481529060010190602001808311610fb757829003601f168201915b5050505050611454565b7f83b9dd2f17447e04c4ebd57c3f0fc35f1aa03648cb729dafb09822ca42c76f32818560405161100f929190611db9565b60405180910390a1505050505050565b60008061102b83610864565b9050806001600160a01b0316846001600160a01b0316148061105257506110528185610d39565b80610d065750836001600160a01b031661106b8461052d565b6001600160a01b031614949350505050565b826001600160a01b031661109082610864565b6001600160a01b0316146110f45760405162461bcd60e51b815260206004820152602560248201527f4552433732313a207472616e736665722066726f6d20696e636f72726563742060448201526437bbb732b960d91b60648201526084016105c8565b6001600160a01b0382166111565760405162461bcd60e51b8152602060048201526024808201527f4552433732313a207472616e7366657220746f20746865207a65726f206164646044820152637265737360e01b60648201526084016105c8565b611161600082610e3f565b6001600160a01b038316600090815260036020526040812080546001929061118a908490611ddf565b90915550506001600160a01b03821660009081526003602052604081208054600192906111b8908490611d34565b909155505060008181526002602052604080822080546001600160a01b0319166001600160a01b0386811691821790925591518493918716917fddf252ad1be2c89b69c2b068fc378daa952ba7f163c4a11628f55a4df523b3ef91a4505050565b6007546001600160a01b0316331461095c5760405162461bcd60e51b815260206004820181905260248201527f4f776e61626c653a2063616c6c6572206973206e6f7420746865206f776e657260448201526064016105c8565b600780546001600160a01b038381166001600160a01b0319831681179093556040519116919082907f8be0079c531659141344cd1fd0a4f28419497f9722a3daafe3b4186f6b6457e090600090a35050565b816001600160a01b0316836001600160a01b0316036113265760405162461bcd60e51b815260206004820152601960248201527f4552433732313a20617070726f766520746f2063616c6c65720000000000000060448201526064016105c8565b6001600160a01b03838116600081815260056020908152604080832094871680845294825291829020805460ff191686151590811790915591519182527f17307eab39ab6107e8899845ad3d59bd9653f200f220920489ca2b5937696c31910160405180910390a3505050565b61139e84848461107d565b6113aa848484846114e7565b610b405760405162461bcd60e51b81526004016105c890611df2565b60606113d182610de0565b60006113e860408051602081019091526000815290565b905060008151116114085760405180602001604052806000815250611433565b80611412846115e8565b604051602001611423929190611d60565b6040516020818303038152906040525b9392505050565b6107a18282604051806020016040528060008152506116e9565b6000828152600260205260409020546001600160a01b03166114cf5760405162461bcd60e51b815260206004820152602e60248201527f45524337323155524953746f726167653a2055524920736574206f66206e6f6e60448201526d32bc34b9ba32b73a103a37b5b2b760911b60648201526084016105c8565b60008281526006602052604090206106698282611e92565b60006001600160a01b0384163b156115dd57604051630a85bd0160e11b81526001600160a01b0385169063150b7a029061152b903390899088908890600401611f52565b6020604051808303816000875af1925050508015611566575060408051601f3d908101601f1916820190925261156391810190611f8f565b60015b6115c3573d808015611594576040519150601f19603f3d011682016040523d82523d6000602084013e611599565b606091505b5080516000036115bb5760405162461bcd60e51b81526004016105c890611df2565b805181602001fd5b6001600160e01b031916630a85bd0160e11b149050610d06565b506001949350505050565b60608160000361160f5750506040805180820190915260018152600360fc1b602082015290565b8160005b8115611639578061162381611d47565b91506116329050600a83611fac565b9150611613565b60008167ffffffffffffffff81111561165457611654611971565b6040519080825280601f01601f19166020018201604052801561167e576020820181803683370190505b5090505b8415610d0657611693600183611ddf565b91506116a0600a86611da5565b6116ab906030611d34565b60f81b8183815181106116c0576116c0611ca1565b60200101906001600160f81b031916908160001a9053506116e2600a86611fac565b9450611682565b6116f3838361171c565b61170060008484846114e7565b6106695760405162461bcd60e51b81526004016105c890611df2565b6001600160a01b0382166117725760405162461bcd60e51b815260206004820181905260248201527f4552433732313a206d696e7420746f20746865207a65726f206164647265737360448201526064016105c8565b6000818152600260205260409020546001600160a01b0316156117d75760405162461bcd60e51b815260206004820152601c60248201527f4552433732313a20746f6b656e20616c7265616479206d696e7465640000000060448201526064016105c8565b6001600160a01b0382166000908152600360205260408120805460019290611800908490611d34565b909155505060008181526002602052604080822080546001600160a01b0319166001600160a01b03861690811790915590518392907fddf252ad1be2c89b69c2b068fc378daa952ba7f163c4a11628f55a4df523b3ef908290a45050565b60405180606001604052806003906020820280368337509192915050565b6001600160e01b031981168114610ddd57600080fd5b6000602082840312156118a457600080fd5b81356114338161187c565b60005b838110156118ca5781810151838201526020016118b2565b50506000910152565b600081518084526118eb8160208601602086016118af565b601f01601f19169290920160200192915050565b60208152600061143360208301846118d3565b60006020828403121561192457600080fd5b5035919050565b80356001600160a01b038116811461194257600080fd5b919050565b6000806040838503121561195a57600080fd5b6119638361192b565b946020939093013593505050565b634e487b7160e01b600052604160045260246000fd5b604051601f8201601f1916810167ffffffffffffffff811182821017156119b0576119b0611971565b604052919050565b600080604083850312156119cb57600080fd5b8235915060208084013567ffffffffffffffff808211156119eb57600080fd5b818601915086601f8301126119ff57600080fd5b813581811115611a1157611a11611971565b8060051b9150611a22848301611987565b8181529183018401918481019089841115611a3c57600080fd5b938501935b83851015611a5a57843582529385019390850190611a41565b8096505050505050509250929050565b600080600060608486031215611a7f57600080fd5b611a888461192b565b9250611a966020850161192b565b9150604084013590509250925092565b600060208284031215611ab857600080fd5b6114338261192b565b60008060408385031215611ad457600080fd5b611add8361192b565b915060208301358015158114611af257600080fd5b809150509250929050565b60008060008060808587031215611b1357600080fd5b611b1c8561192b565b93506020611b2b81870161192b565b935060408601359250606086013567ffffffffffffffff80821115611b4f57600080fd5b818801915088601f830112611b6357600080fd5b813581811115611b7557611b75611971565b611b87601f8201601f19168501611987565b91508082528984828501011115611b9d57600080fd5b808484018584013760008482840101525080935050505092959194509250565b634e487b7160e01b600052602160045260246000fd5b60038110611bf157634e487b7160e01b600052602160045260246000fd5b9052565b602081016104958284611bd3565b60608101818360005b6003811015611c2b578151835260209283019290910190600101611c0c565b50505092915050565b60008060408385031215611c4757600080fd5b611c508361192b565b9150611c5e6020840161192b565b90509250929050565b600181811c90821680611c7b57607f821691505b602082108103611c9b57634e487b7160e01b600052602260045260246000fd5b50919050565b634e487b7160e01b600052603260045260246000fd5b6020808252602e908201527f4552433732313a2063616c6c6572206973206e6f7420746f6b656e206f776e6560408201526d1c881b9bdc88185c1c1c9bdd995960921b606082015260800190565b600060208284031215611d1757600080fd5b5051919050565b634e487b7160e01b600052601160045260246000fd5b8082018082111561049557610495611d1e565b600060018201611d5957611d59611d1e565b5060010190565b60008351611d728184602088016118af565b835190830190611d868183602088016118af565b01949350505050565b634e487b7160e01b600052601260045260246000fd5b600082611db457611db4611d8f565b500690565b60408101611dc78285611bd3565b6001600160a01b039290921660209190910152919050565b8181038181111561049557610495611d1e565b60208082526032908201527f4552433732313a207472616e7366657220746f206e6f6e20455243373231526560408201527131b2b4bb32b91034b6b83632b6b2b73a32b960711b606082015260800190565b601f82111561066957600081815260208120601f850160051c81016020861015611e6b5750805b601f850160051c820191505b81811015611e8a57828155600101611e77565b505050505050565b815167ffffffffffffffff811115611eac57611eac611971565b611ec081611eba8454611c67565b84611e44565b602080601f831160018114611ef55760008415611edd5750858301515b600019600386901b1c1916600185901b178555611e8a565b600085815260208120601f198616915b82811015611f2457888601518255948401946001909101908401611f05565b5085821015611f425787850151600019600388901b60f8161c191681555b5050505050600190811b01905550565b6001600160a01b0385811682528416602082015260408101839052608060608201819052600090611f85908301846118d3565b9695505050505050565b600060208284031215611fa157600080fd5b81516114338161187c565b600082611fbb57611fbb611d8f565b50049056fea26469706673582212204c94098e1496d867b74e34f12cfab04bd9d14363ce471cd61b5aecd8ff44ad9364736f6c63430008100033",
    "linkReferences": {}
  },
  "methodIdentifiers": {
    "approve(address,uint256)": "095ea7b3",
    "artURIsGetter(uint256)": "17b37570",
    "balanceOf(address)": "70a08231",
    "getApproved(uint256)": "081812fc",
    "getArtValuedName(uint256)": "bbb11014",
    "isApprovedForAll(address,address)": "e985e9c5",
    "mintFreeGetter()": "eb49ddc7",
    "name()": "06fdde03",
    "owner()": "8da5cb5b",
    "ownerOf(uint256)": "6352211e",
    "rangesArrayGetter()": "d6734496",
    "rawFulfillRandomWords(uint256,uint256[])": "1fe543e3",
    "renounceOwnership()": "715018a6",
    "requestNft()": "aa152491",
    "safeTransferFrom(address,address,uint256)": "42842e0e",
    "safeTransferFrom(address,address,uint256,bytes)": "b88d4fde",
    "setApprovalForAll(address,bool)": "a22cb465",
    "supportsInterface(bytes4)": "01ffc9a7",
    "symbol()": "95d89b41",
    "tokenCounterGetter()": "15039ef3",
    "tokenURI(uint256)": "c87b56dd",
    "transferFrom(address,address,uint256)": "23b872dd",
    "transferOwnership(address)": "f2fde38b",
    "withdraw()": "3ccfd60b"
  },
  "id": 21
}